{
  "_format": "hh-sol-artifact-1",
  "address": "0x8F777c16013751ff5b19D86BeCCd85F0020ecCf0",
  "contractName": "RandomGenerator",
  "sourceName": "contracts/RandomGenerator.sol",
  "abi": [
    {
      "anonymous": false,
      "inputs": [
        {
          "indexed": true,
          "internalType": "address",
          "name": "by",
          "type": "address"
        },
        {
          "indexed": true,
          "internalType": "uint256",
          "name": "randomNumber",
          "type": "uint256"
        },
        {
          "indexed": false,
          "internalType": "uint256",
          "name": "maxNumber",
          "type": "uint256"
        },
        {
          "indexed": false,
          "internalType": "uint256",
          "name": "time",
          "type": "uint256"
        }
      ],
      "name": "RandomNumberGenerated",
      "type": "event"
    },
    {
      "anonymous": false,
      "inputs": [
        {
          "indexed": true,
          "internalType": "address",
          "name": "by",
          "type": "address"
        },
        {
          "indexed": true,
          "internalType": "uint256",
          "name": "randomNumber",
          "type": "uint256"
        },
        {
          "indexed": false,
          "internalType": "string",
          "name": "randomName",
          "type": "string"
        },
        {
          "indexed": false,
          "internalType": "uint256",
          "name": "totalNames",
          "type": "uint256"
        },
        {
          "indexed": false,
          "internalType": "uint256",
          "name": "time",
          "type": "uint256"
        }
      ],
      "name": "RandomNumberWithNameGenerated",
      "type": "event"
    },
    {
      "inputs": [
        {
          "internalType": "uint256",
          "name": "maxNumber",
          "type": "uint256"
        },
        {
          "internalType": "uint256",
          "name": "_anyNumber",
          "type": "uint256"
        }
      ],
      "name": "getRandomNumber",
      "outputs": [
        {
          "internalType": "uint256",
          "name": "",
          "type": "uint256"
        }
      ],
      "stateMutability": "nonpayable",
      "type": "function"
    },
    {
      "inputs": [
        {
          "internalType": "string[]",
          "name": "_names",
          "type": "string[]"
        },
        {
          "internalType": "uint256",
          "name": "_anyNumber",
          "type": "uint256"
        }
      ],
      "name": "getRandomStringFromArray",
      "outputs": [
        {
          "internalType": "string",
          "name": "",
          "type": "string"
        }
      ],
      "stateMutability": "nonpayable",
      "type": "function"
    }
  ],
  "bytecode": "0x608060405234801561001057600080fd5b506108af806100206000396000f3fe608060405234801561001057600080fd5b50600436106100365760003560e01c80636e68fc0a1461003b578063ab55e6df1461006b575b600080fd5b61005560048036038101906100509190610234565b61009b565b6040516100629190610283565b60405180910390f35b610085600480360381019061008091906104ca565b61014a565b60405161009291906105ae565b60405180910390f35b60008044423386866040516020016100b795949392919061066b565b6040516020818303038152906040528051906020012060001c905060006001856100e191906106f9565b826100ec919061077e565b9050803373ffffffffffffffffffffffffffffffffffffffff167fc29c315b23ea508191d350a4ce53445ea8c03de1fd979d3d8b2a4dbd567ddf0a87426040516101379291906107af565b60405180910390a3809250505092915050565b6060600083519050600061016a60018361016491906107d8565b8561009b565b905060008582815181106101815761018061080c565b5b60200260200101519050813373ffffffffffffffffffffffffffffffffffffffff167f3b8063e95da7d23cab5750059fc7851a752fca2bcf481a50fa5ec8fc7087af208386426040516101d69392919061083b565b60405180910390a380935050505092915050565b6000604051905090565b600080fd5b600080fd5b6000819050919050565b610211816101fe565b811461021c57600080fd5b50565b60008135905061022e81610208565b92915050565b6000806040838503121561024b5761024a6101f4565b5b60006102598582860161021f565b925050602061026a8582860161021f565b9150509250929050565b61027d816101fe565b82525050565b60006020820190506102986000830184610274565b92915050565b600080fd5b6000601f19601f8301169050919050565b7f4e487b7100000000000000000000000000000000000000000000000000000000600052604160045260246000fd5b6102ec826102a3565b810181811067ffffffffffffffff8211171561030b5761030a6102b4565b5b80604052505050565b600061031e6101ea565b905061032a82826102e3565b919050565b600067ffffffffffffffff82111561034a576103496102b4565b5b602082029050602081019050919050565b600080fd5b600080fd5b600067ffffffffffffffff8211156103805761037f6102b4565b5b610389826102a3565b9050602081019050919050565b82818337600083830152505050565b60006103b86103b384610365565b610314565b9050828152602081018484840111156103d4576103d3610360565b5b6103df848285610396565b509392505050565b600082601f8301126103fc576103fb61029e565b5b813561040c8482602086016103a5565b91505092915050565b60006104286104238461032f565b610314565b9050808382526020820190506020840283018581111561044b5761044a61035b565b5b835b8181101561049257803567ffffffffffffffff8111156104705761046f61029e565b5b80860161047d89826103e7565b8552602085019450505060208101905061044d565b5050509392505050565b600082601f8301126104b1576104b061029e565b5b81356104c1848260208601610415565b91505092915050565b600080604083850312156104e1576104e06101f4565b5b600083013567ffffffffffffffff8111156104ff576104fe6101f9565b5b61050b8582860161049c565b925050602061051c8582860161021f565b9150509250929050565b600081519050919050565b600082825260208201905092915050565b60005b83811015610560578082015181840152602081019050610545565b8381111561056f576000848401525b50505050565b600061058082610526565b61058a8185610531565b935061059a818560208601610542565b6105a3816102a3565b840191505092915050565b600060208201905081810360008301526105c88184610575565b905092915050565b6000819050919050565b6105eb6105e6826101fe565b6105d0565b82525050565b600073ffffffffffffffffffffffffffffffffffffffff82169050919050565b600061061c826105f1565b9050919050565b60008160601b9050919050565b600061063b82610623565b9050919050565b600061064d82610630565b9050919050565b61066561066082610611565b610642565b82525050565b600061067782886105da565b60208201915061068782876105da565b6020820191506106978286610654565b6014820191506106a782856105da565b6020820191506106b782846105da565b6020820191508190509695505050505050565b7f4e487b7100000000000000000000000000000000000000000000000000000000600052601160045260246000fd5b6000610704826101fe565b915061070f836101fe565b9250827fffffffffffffffffffffffffffffffffffffffffffffffffffffffffffffffff03821115610744576107436106ca565b5b828201905092915050565b7f4e487b7100000000000000000000000000000000000000000000000000000000600052601260045260246000fd5b6000610789826101fe565b9150610794836101fe565b9250826107a4576107a361074f565b5b828206905092915050565b60006040820190506107c46000830185610274565b6107d16020830184610274565b9392505050565b60006107e3826101fe565b91506107ee836101fe565b925082821015610801576108006106ca565b5b828203905092915050565b7f4e487b7100000000000000000000000000000000000000000000000000000000600052603260045260246000fd5b600060608201905081810360008301526108558186610575565b90506108646020830185610274565b6108716040830184610274565b94935050505056fea2646970667358221220efa3c95e0467db3006495b170b106f43c364837107edd3835c9a477ec6fc9a5164736f6c63430008090033",
  "linkReferences": {},
  "deployedLinkReferences": {}
}