{
  "_format": "hh-sol-artifact-1",
  "contractName": "RandomGenerator",
  "sourceName": "contracts/RandomGenerator.sol",
  "address": "0x56120053C4cb6D7A53043848Ef0c06393B3EF587",
  "abi": [
    {
      "inputs": [
        {
          "internalType": "address",
          "name": "_owner",
          "type": "address"
        },
        {
          "internalType": "address",
          "name": "_user",
          "type": "address"
        }
      ],
      "stateMutability": "nonpayable",
      "type": "constructor"
    },
    {
      "anonymous": false,
      "inputs": [
        {
          "indexed": true,
          "internalType": "address",
          "name": "by",
          "type": "address"
        },
        {
          "indexed": true,
          "internalType": "uint256",
          "name": "randomNumber",
          "type": "uint256"
        },
        {
          "indexed": false,
          "internalType": "uint256",
          "name": "maxNumber",
          "type": "uint256"
        },
        {
          "indexed": false,
          "internalType": "uint256",
          "name": "time",
          "type": "uint256"
        }
      ],
      "name": "RandomNumberGenerated",
      "type": "event"
    },
    {
      "anonymous": false,
      "inputs": [
        {
          "indexed": true,
          "internalType": "address",
          "name": "by",
          "type": "address"
        },
        {
          "indexed": true,
          "internalType": "uint256",
          "name": "randomNumber",
          "type": "uint256"
        },
        {
          "indexed": false,
          "internalType": "string",
          "name": "randomName",
          "type": "string"
        },
        {
          "indexed": false,
          "internalType": "uint256",
          "name": "totalNames",
          "type": "uint256"
        },
        {
          "indexed": false,
          "internalType": "uint256",
          "name": "time",
          "type": "uint256"
        }
      ],
      "name": "RandomNumberWithNameGenerated",
      "type": "event"
    },
    {
      "inputs": [
        {
          "internalType": "address",
          "name": "_newOwner",
          "type": "address"
        }
      ],
      "name": "changeOwner",
      "outputs": [],
      "stateMutability": "nonpayable",
      "type": "function"
    },
    {
      "inputs": [
        {
          "internalType": "address",
          "name": "_newUser",
          "type": "address"
        }
      ],
      "name": "changeUser",
      "outputs": [],
      "stateMutability": "nonpayable",
      "type": "function"
    },
    {
      "inputs": [
        {
          "internalType": "uint256",
          "name": "maxNumber",
          "type": "uint256"
        },
        {
          "internalType": "uint256",
          "name": "_anyNumber",
          "type": "uint256"
        }
      ],
      "name": "getRandomNumber",
      "outputs": [
        {
          "internalType": "uint256",
          "name": "",
          "type": "uint256"
        }
      ],
      "stateMutability": "nonpayable",
      "type": "function"
    },
    {
      "inputs": [
        {
          "internalType": "string[]",
          "name": "_names",
          "type": "string[]"
        },
        {
          "internalType": "uint256",
          "name": "_anyNumber",
          "type": "uint256"
        }
      ],
      "name": "getRandomStringFromArray",
      "outputs": [
        {
          "internalType": "string",
          "name": "",
          "type": "string"
        }
      ],
      "stateMutability": "nonpayable",
      "type": "function"
    },
    {
      "inputs": [],
      "name": "isUserOwner",
      "outputs": [
        {
          "internalType": "bool",
          "name": "",
          "type": "bool"
        }
      ],
      "stateMutability": "view",
      "type": "function"
    },
    {
      "inputs": [],
      "name": "owner",
      "outputs": [
        {
          "internalType": "address",
          "name": "",
          "type": "address"
        }
      ],
      "stateMutability": "view",
      "type": "function"
    },
    {
      "inputs": [],
      "name": "user",
      "outputs": [
        {
          "internalType": "address",
          "name": "",
          "type": "address"
        }
      ],
      "stateMutability": "view",
      "type": "function"
    }
  ],
  "bytecode": "0x60806040523480156200001157600080fd5b50604051620011613803806200116183398181016040528101906200003791906200012a565b816000806101000a81548173ffffffffffffffffffffffffffffffffffffffff021916908373ffffffffffffffffffffffffffffffffffffffff16021790555080600160006101000a81548173ffffffffffffffffffffffffffffffffffffffff021916908373ffffffffffffffffffffffffffffffffffffffff160217905550505062000171565b600080fd5b600073ffffffffffffffffffffffffffffffffffffffff82169050919050565b6000620000f282620000c5565b9050919050565b6200010481620000e5565b81146200011057600080fd5b50565b6000815190506200012481620000f9565b92915050565b60008060408385031215620001445762000143620000c0565b5b6000620001548582860162000113565b9250506020620001678582860162000113565b9150509250929050565b610fe080620001816000396000f3fe608060405234801561001057600080fd5b506004361061007d5760003560e01c80638da5cb5b1161005b5780638da5cb5b146100ec578063a6f9dae11461010a578063ab55e6df14610126578063de4d7bff146101565761007d565b80632c30e13b146100825780634f8632ba1461009e5780636e68fc0a146100bc575b600080fd5b61009c600480360381019061009791906107b0565b610174565b005b6100a6610246565b6040516100b391906107ec565b60405180910390f35b6100d660048036038101906100d1919061083d565b61026c565b6040516100e3919061088c565b60405180910390f35b6100f4610403565b60405161010191906107ec565b60405180910390f35b610124600480360381019061011f91906107b0565b610427565b005b610140600480360381019061013b9190610ad3565b6104f8565b60405161014d9190610bb7565b60405180910390f35b61015e61067e565b60405161016b9190610bf4565b60405180910390f35b60008054906101000a900473ffffffffffffffffffffffffffffffffffffffff1673ffffffffffffffffffffffffffffffffffffffff163373ffffffffffffffffffffffffffffffffffffffff1614610202576040517f08c379a00000000000000000000000000000000000000000000000000000000081526004016101f990610c81565b60405180910390fd5b80600160006101000a81548173ffffffffffffffffffffffffffffffffffffffff021916908373ffffffffffffffffffffffffffffffffffffffff16021790555050565b600160009054906101000a900473ffffffffffffffffffffffffffffffffffffffff1681565b60008060009054906101000a900473ffffffffffffffffffffffffffffffffffffffff1673ffffffffffffffffffffffffffffffffffffffff163373ffffffffffffffffffffffffffffffffffffffff1614806103165750600160009054906101000a900473ffffffffffffffffffffffffffffffffffffffff1673ffffffffffffffffffffffffffffffffffffffff163373ffffffffffffffffffffffffffffffffffffffff16145b610355576040517f08c379a000000000000000000000000000000000000000000000000000000000815260040161034c90610d13565b60405180910390fd5b60004442338686604051602001610370959493929190610d9c565b6040516020818303038152906040528051906020012060001c905060006001858361039b9190610e2a565b6103a59190610e8a565b9050803373ffffffffffffffffffffffffffffffffffffffff167fc29c315b23ea508191d350a4ce53445ea8c03de1fd979d3d8b2a4dbd567ddf0a87426040516103f0929190610ee0565b60405180910390a3809250505092915050565b60008054906101000a900473ffffffffffffffffffffffffffffffffffffffff1681565b60008054906101000a900473ffffffffffffffffffffffffffffffffffffffff1673ffffffffffffffffffffffffffffffffffffffff163373ffffffffffffffffffffffffffffffffffffffff16146104b5576040517f08c379a00000000000000000000000000000000000000000000000000000000081526004016104ac90610c81565b60405180910390fd5b806000806101000a81548173ffffffffffffffffffffffffffffffffffffffff021916908373ffffffffffffffffffffffffffffffffffffffff16021790555050565b606060008054906101000a900473ffffffffffffffffffffffffffffffffffffffff1673ffffffffffffffffffffffffffffffffffffffff163373ffffffffffffffffffffffffffffffffffffffff1614806105a15750600160009054906101000a900473ffffffffffffffffffffffffffffffffffffffff1673ffffffffffffffffffffffffffffffffffffffff163373ffffffffffffffffffffffffffffffffffffffff16145b6105e0576040517f08c379a00000000000000000000000000000000000000000000000000000000081526004016105d790610d13565b60405180910390fd5b600083519050600060016105f4838661026c565b6105fe9190610f09565b9050600085828151811061061557610614610f3d565b5b60200260200101519050813373ffffffffffffffffffffffffffffffffffffffff167f3b8063e95da7d23cab5750059fc7851a752fca2bcf481a50fa5ec8fc7087af2083864260405161066a93929190610f6c565b60405180910390a380935050505092915050565b60008060009054906101000a900473ffffffffffffffffffffffffffffffffffffffff1673ffffffffffffffffffffffffffffffffffffffff163373ffffffffffffffffffffffffffffffffffffffff1614806107285750600160009054906101000a900473ffffffffffffffffffffffffffffffffffffffff1673ffffffffffffffffffffffffffffffffffffffff163373ffffffffffffffffffffffffffffffffffffffff16145b15610736576001905061073b565b600090505b90565b6000604051905090565b600080fd5b600080fd5b600073ffffffffffffffffffffffffffffffffffffffff82169050919050565b600061077d82610752565b9050919050565b61078d81610772565b811461079857600080fd5b50565b6000813590506107aa81610784565b92915050565b6000602082840312156107c6576107c5610748565b5b60006107d48482850161079b565b91505092915050565b6107e681610772565b82525050565b600060208201905061080160008301846107dd565b92915050565b6000819050919050565b61081a81610807565b811461082557600080fd5b50565b60008135905061083781610811565b92915050565b6000806040838503121561085457610853610748565b5b600061086285828601610828565b925050602061087385828601610828565b9150509250929050565b61088681610807565b82525050565b60006020820190506108a1600083018461087d565b92915050565b600080fd5b6000601f19601f8301169050919050565b7f4e487b7100000000000000000000000000000000000000000000000000000000600052604160045260246000fd5b6108f5826108ac565b810181811067ffffffffffffffff82111715610914576109136108bd565b5b80604052505050565b600061092761073e565b905061093382826108ec565b919050565b600067ffffffffffffffff821115610953576109526108bd565b5b602082029050602081019050919050565b600080fd5b600080fd5b600067ffffffffffffffff821115610989576109886108bd565b5b610992826108ac565b9050602081019050919050565b82818337600083830152505050565b60006109c16109bc8461096e565b61091d565b9050828152602081018484840111156109dd576109dc610969565b5b6109e884828561099f565b509392505050565b600082601f830112610a0557610a046108a7565b5b8135610a158482602086016109ae565b91505092915050565b6000610a31610a2c84610938565b61091d565b90508083825260208201905060208402830185811115610a5457610a53610964565b5b835b81811015610a9b57803567ffffffffffffffff811115610a7957610a786108a7565b5b808601610a8689826109f0565b85526020850194505050602081019050610a56565b5050509392505050565b600082601f830112610aba57610ab96108a7565b5b8135610aca848260208601610a1e565b91505092915050565b60008060408385031215610aea57610ae9610748565b5b600083013567ffffffffffffffff811115610b0857610b0761074d565b5b610b1485828601610aa5565b9250506020610b2585828601610828565b9150509250929050565b600081519050919050565b600082825260208201905092915050565b60005b83811015610b69578082015181840152602081019050610b4e565b83811115610b78576000848401525b50505050565b6000610b8982610b2f565b610b938185610b3a565b9350610ba3818560208601610b4b565b610bac816108ac565b840191505092915050565b60006020820190508181036000830152610bd18184610b7e565b905092915050565b60008115159050919050565b610bee81610bd9565b82525050565b6000602082019050610c096000830184610be5565b92915050565b7f6f6e6c79206f776e65722063616e2063616c6c20746869732066756e6374696f60008201527f6e00000000000000000000000000000000000000000000000000000000000000602082015250565b6000610c6b602183610b3a565b9150610c7682610c0f565b604082019050919050565b60006020820190508181036000830152610c9a81610c5e565b9050919050565b7f6f6e6c79206f776e657220616e6420757365722063616e2063616c6c2074686960008201527f732066756e6374696f6e00000000000000000000000000000000000000000000602082015250565b6000610cfd602a83610b3a565b9150610d0882610ca1565b604082019050919050565b60006020820190508181036000830152610d2c81610cf0565b9050919050565b6000819050919050565b610d4e610d4982610807565b610d33565b82525050565b60008160601b9050919050565b6000610d6c82610d54565b9050919050565b6000610d7e82610d61565b9050919050565b610d96610d9182610772565b610d73565b82525050565b6000610da88288610d3d565b602082019150610db88287610d3d565b602082019150610dc88286610d85565b601482019150610dd88285610d3d565b602082019150610de88284610d3d565b6020820191508190509695505050505050565b7f4e487b7100000000000000000000000000000000000000000000000000000000600052601260045260246000fd5b6000610e3582610807565b9150610e4083610807565b925082610e5057610e4f610dfb565b5b828206905092915050565b7f4e487b7100000000000000000000000000000000000000000000000000000000600052601160045260246000fd5b6000610e9582610807565b9150610ea083610807565b9250827fffffffffffffffffffffffffffffffffffffffffffffffffffffffffffffffff03821115610ed557610ed4610e5b565b5b828201905092915050565b6000604082019050610ef5600083018561087d565b610f02602083018461087d565b9392505050565b6000610f1482610807565b9150610f1f83610807565b925082821015610f3257610f31610e5b565b5b828203905092915050565b7f4e487b7100000000000000000000000000000000000000000000000000000000600052603260045260246000fd5b60006060820190508181036000830152610f868186610b7e565b9050610f95602083018561087d565b610fa2604083018461087d565b94935050505056fea26469706673582212202e2a73c90a47eb143800c349615183147a8af64d0b27818185206928dbe2d02964736f6c63430008090033",
  "linkReferences": {},
  "deployedLinkReferences": {}
}